:100000000C942A000C943F000C943F000C943F0089
:100010000C943F000C943F000C943F000C943F0064
:100020000C943F000C943F000C943F000C943F0054
:100030000C943F000C943F000C943F000C943F0044
:100040000C943F000C943F000C943F000C943F0034
:100050000C943F0011241FBECFE5D8E0DEBFCDBF1A
:1000600010E0A0E6B0E0E8E7FBE002C005900D92EA
:10007000A237B107D9F70E943A050C94BA050C943F
:100080000000DF93CF9300D000D0CDB7DEB79C83C4
:100090008B831A821982EBE2F0E082E08083EAE24D
:1000A000F0E088E18083E0E4F0E080E88083A0E491
:1000B000B0E0E0E4F0E08081282F2F7CEB81FC8130
:1000C0008181882F90E082959295907F9827807FFC
:1000D0009827822B8C93A0E4B0E0E0E4F0E08081EC
:1000E000282F277FEB81FC818281882F90E0880F69
:1000F000991F880F991F880F991F822B8C93A0E45A
:10010000B0E0E0E4F0E08081282F297FEB81FC81E2
:100110008081882F90E0880F991F822B8C93EB8130
:10012000FC8183819481CC01A0E0B0E0880F991F0D
:10013000AA1FBB1F880F991FAA1FBB1F880F991FDB
:10014000AA1FBB1F9C01AD0180E492E4AFE0B0E0C8
:10015000BC01CD010E949805DA01C90101979A837B
:100160008983E0E4F0E089819A81892F992780834F
:10017000E9E2F0E0898180830F900F900F900F905B
:10018000CF91DF910895DF93CF930F92CDB7DEB774
:100190008983EBE2F0E08081882F90E0807290709C
:1001A0000097B9F3ECE2F0E0898180830F90CF9162
:1001B000DF910895DF93CF93CDB7DEB7EBE2F0E0A8
:1001C00080818823DCF7ECE2F0E08081CF91DF9141
:1001D0000895DF93CF9300D00F92CDB7DEB79B8306
:1001E0008A8319820EC08981282F30E08A819B8101
:1001F000FC01E20FF31F80810E94C30089818F5FA1
:1002000089838981282F30E08A819B81FC01E20F5C
:10021000F31F8081882339F70F900F900F90CF91B3
:10022000DF9108950F931F93DF93CF9300D00F9228
:10023000CDB7DEB79B838A8319828981282F30E06E
:100240008A819B818C01020F131F0E94DA00F80142
:1002500080830FC089818F5F89838981282F30E057
:100260008A819B818C01020F131F0E94DA00F80122
:1002700080838981282F30E08A819B81FC01E20FF5
:10028000F31F8081833231F78981282F30E08A8102
:100290009B81FC01E20FF31F10820F900F900F90D3
:1002A000CF91DF911F910F910895DF93CF9300D0ED
:1002B00000D00F92CDB7DEB789836A834B838A81E2
:1002C000883008F0D5C08981843008F0D1C0898198
:1002D000282F30E03D832C838C819D8181309105D6
:1002E00009F443C02C813D81223031052CF48C81EE
:1002F0009D81009771F0BCC02C813D812230310579
:1003000009F45FC08C819D818330910509F485C01B
:10031000AFC08B818130A1F4AAE3B0E0EAE3F0E062
:100320008081482F8A81282F30E081E090E0022EE2
:1003300002C0880F991F0A94E2F7842B8C9398C00F
:10034000AAE3B0E0EAE3F0E08081482F8A81282F19
:1003500030E081E090E0022E02C0880F991F0A94DD
:10036000E2F7809584238C9383C08B818130A1F444
:10037000A7E3B0E0E7E3F0E08081482F8A81282FEF
:1003800030E081E090E0022E02C0880F991F0A94AD
:10039000E2F7842B8C936CC0A7E3B0E0E7E3F0E0D6
:1003A0008081482F8A81282F30E081E090E0022E62
:1003B00002C0880F991F0A94E2F7809584238C93DA
:1003C00057C08B818130A1F4A4E3B0E0E4E3F0E016
:1003D0008081482F8A81282F30E081E090E0022E32
:1003E00002C0880F991F0A94E2F7842B8C9340C0B7
:1003F000A4E3B0E0E4E3F0E08081482F8A81282F75
:1004000030E081E090E0022E02C0880F991F0A942C
:10041000E2F7809584238C932BC08B818130A1F4EB
:10042000A1E3B0E0E1E3F0E08081482F8A81282F4A
:1004300030E081E090E0022E02C0880F991F0A94FC
:10044000E2F7842B8C9314C0A1E3B0E0E1E3F0E089
:100450008081482F8A81282F30E081E090E0022EB1
:1004600002C0880F991F0A94E2F7809584238C9329
:100470000F900F900F900F900F90CF91DF910895F4
:10048000DF93CF9300D000D00F92CDB7DEB7898332
:100490006A834B838A81883008F0D5C08981843093
:1004A00008F0D1C08981282F30E03D832C838C81D6
:1004B0009D818130910509F443C02C813D8122301A
:1004C00031052CF48C819D81009771F0BCC02C818A
:1004D0003D812230310509F45FC08C819D818330DC
:1004E000910509F485C0AFC08B818130A1F4ABE3E5
:1004F000B0E0EBE3F0E08081482F8A81282F30E0E4
:1005000081E090E0022E02C0880F991F0A94E2F762
:10051000842B8C9398C0ABE3B0E0EBE3F0E08081F8
:10052000482F8A81282F30E081E090E0022E02C01F
:10053000880F991F0A94E2F7809584238C9383C0D7
:100540008B818130A1F4A8E3B0E0E8E3F0E08081A2
:10055000482F8A81282F30E081E090E0022E02C0EF
:10056000880F991F0A94E2F7842B8C936CC0A8E340
:10057000B0E0E8E3F0E08081482F8A81282F30E066
:1005800081E090E0022E02C0880F991F0A94E2F7E2
:10059000809584238C9357C08B818130A1F4A5E38F
:1005A000B0E0E5E3F0E08081482F8A81282F30E039
:1005B00081E090E0022E02C0880F991F0A94E2F7B2
:1005C000842B8C9340C0A5E3B0E0E5E3F0E08081AC
:1005D000482F8A81282F30E081E090E0022E02C06F
:1005E000880F991F0A94E2F7809584238C932BC07F
:1005F0008B818130A1F4A2E3B0E0E2E3F0E08081FE
:10060000482F8A81282F30E081E090E0022E02C03E
:10061000880F991F0A94E2F7842B8C9314C0A2E3ED
:10062000B0E0E2E3F0E08081482F8A81282F30E0BB
:1006300081E090E0022E02C0880F991F0A94E2F731
:10064000809584238C930F900F900F900F900F90B4
:10065000CF91DF910895DF93CF9300D000D00F9218
:10066000CDB7DEB78A836B8319828B81883008F01F
:1006700084C08A81843008F080C08A81282F30E0CD
:100680003D832C834C815D814130510579F18C8112
:100690009D818230910534F42C813D8121153105F5
:1006A00069F06BC04C815D8142305105B9F18C819C
:1006B0009D818330910509F449C05FC0E9E3F0E012
:1006C0008081282F30E08B81882F90E0A90102C023
:1006D000559547958A95E2F7CA01817090708823F5
:1006E00019F081E0898349C0198247C0E6E3F0E050
:1006F0008081282F30E08B81882F90E0A90102C0F3
:10070000559547958A95E2F7CA01817090708823C4
:1007100019F081E0898331C019822FC0E3E3F0E052
:100720008081282F30E08B81882F90E0A90102C0C2
:10073000559547958A95E2F7CA0181709070882394
:1007400019F081E0898319C0198217C0E0E3F0E055
:100750008081282F30E08B81882F90E0A90102C092
:10076000559547958A95E2F7CA0181709070882364
:1007700019F081E0898301C0198289810F900F905F
:100780000F900F900F90CF91DF910895DF93CF934B
:1007900000D000D0CDB7DEB789836A8389818430E9
:1007A00090F58981282F30E03C832B838B819C81BD
:1007B00081309105D1F02B813C81223031052CF420
:1007C0008B819C81009761F01EC02B813C8122307F
:1007D000310581F08B819C818330910581F013C0BC
:1007E000EAE3F0E08A8180830EC0E7E3F0E08A81EB
:1007F000808309C0E4E3F0E08A81808304C0E1E300
:10080000F0E08A8180830F900F900F900F90CF912E
:10081000DF910895DF93CF9300D000D0CDB7DEB73E
:1008200089836A838981843090F58981282F30E01B
:100830003C832B838B819C8181309105D1F02B816E
:100840003C81223031052CF48B819C81009761F032
:100850001EC02B813C812230310581F08B819C812F
:100860008330910581F013C0EBE3F0E08A8180834F
:100870000EC0E8E3F0E08A81808309C0E5E3F0E0A0
:100880008A81808304C0E2E3F0E08A8180830F9054
:100890000F900F900F90CF91DF910895DF93CF933A
:1008A00000D000D00F92CDB7DEB78A836B83198258
:1008B0008A81843090F58A81282F30E03D832C8313
:1008C0008C819D8181309105D1F02C813D81223038
:1008D00031052CF48C819D81009761F01EC02C8124
:1008E0003D812230310581F08C819D8183309105DD
:1008F00081F013C0E9E3F0E0808189830EC0E6E374
:10090000F0E08081898309C0E3E3F0E0808189839E
:1009100004C0E0E3F0E08081898389810F900F902B
:100920000F900F900F90CF91DF910895DF93CF93A9
:10093000CDB7DEB76E970FB6F894DEBF0FBECDBF52
:100940009B8B8A8BCE0106969E8B8D8BE0E6F0E02A
:10095000F88FEF8BF5E0F98FEF89F88D00808F89A4
:10096000988D0196988F8F8BED89FE8900828D89F5
:100970009E8901969E8B8D8B998D9150998FE98DD3
:10098000EE2351F7CE010B969B8F8A8FE5E6F0E0C0
:10099000FD8FEC8FF7E0FE8FEC8DFD8D00808C8D50
:1009A0009D8D01969D8F8C8FEA8DFB8D00828A8DA7
:1009B0009B8D01969B8F8A8F9E8D91509E8FEE8D81
:1009C000EE2351F71D821C821B8220C02B813C81AB
:1009D0008A899B89FC01E20FF31F40812B813C81B6
:1009E000CE010696FC01E20FF31F8081481719F033
:1009F00081E08D8310C08D81882319F4F1E0FC8B98
:100A00002FC08B819C8101969C838B838B819C81E1
:100A100084309105DCF21A82198289819A818430AE
:100A20009105ECF429813A818A899B89FC01E20FC6
:100A3000F31F408129813A81CE010B96FC01E20F20
:100A4000F31F8081481719F082E08D8308C08D81E3
:100A5000813019F482E08C8B03C01C8A01C01C8A8F
:100A60008C896E960FB6F894DEBF0FBECDBFCF91C6
:100A7000DF910895DF93CF93CDB7DEB76E970FB6B2
:100A8000F894DEBF0FBECDBF80E060E041E00E9481
:100A90005501ABE3B0E0EBE3F0E080818E7F8C9317
:100AA000CE0145969B8F8A8FECE6F0E0FD8FEC8FB0
:100AB000F5E0FE8FEC8DFD8D00808C8D9D8D019677
:100AC0009D8F8C8FEA8DFB8D00828A8D9B8D019688
:100AD0009B8F8A8F9E8D91509E8FEE8DEE2351F7C6
:100AE000CE0145960E944100CE0101960E9412015E
:100AF000CE0101960E94E900CE0101960E94960463
:100B0000813041F4ABE3B0E0EBE3F0E08081816061
:100B10008C93EACFCE0101960E949604823021F791
:100B2000ABE3B0E0EBE3F0E080818E7F8C93DCCF31
:100B3000A1E21A2EAA1BBB1BFD010DC0AA1FBB1FE1
:100B4000EE1FFF1FA217B307E407F50720F0A21B53
:100B5000B30BE40BF50B661F771F881F991F1A94C0
:100B600069F760957095809590959B01AC01BD01EA
:080B7000CF010895F894FFCFB6
:100B78006F70656E00636C6F7365640003000080BE
:020B8800250046
:00000001FF
