:100000000C942A000C9447000C9447000C94470071
:100010000C9447000C9447000C9447000C946E0815
:100020000C9447000C943B080C9447000C94470038
:100030000C9447000C9447000C9447000C94470024
:100040000C9447000C9447000C9447000C94470014
:100050000C94470011241FBECFE5D8E0DEBFCDBF12
:1000600010E0A0E6B0E0E2E5F1E202C005900D92FA
:10007000A837B107D9F710E0A8E7B0E001C01D929A
:10008000AE38B107E1F70E94B70F0C94A7100C949B
:100090000000EF92FF920F931F937B018C0120E0F1
:1000A00030E040E05FE40E94490388238CF0C801FF
:1000B000B70120E030E040E05FE40E94C1010E940F
:1000C000A9039B01AC01205030404040504806C07D
:1000D000C801B7010E94A9039B01AC01B901CA0183
:1000E0001F910F91FF90EF900895A0E0B0E0EBE733
:1000F000F0E00C947010DC012B01FA019C9192301D
:1001000008F439C1EB018881823008F433C194309E
:1001100069F4843009F02FC111969C91119789815F
:10012000981709F428C1A0E6B0E025C1843009F48D
:1001300021C18230A9F4923009F01DC19A01AD01AC
:1001400088E0EA010990AE01E90109929E0181501F
:10015000C1F7E201898111969C918923818308C1AD
:10016000923009F407C112962D903C901397EB0141
:100170008A819B811496AD90BD90CD90DC901797AD
:10018000EC80FD800E811F819101281B390BB90184
:1001900037FF04C066277727621B730B6032710537
:1001A0000CF061C0121613066CF537014801062EDB
:1001B00004C096948794779467940A94D2F721E0C8
:1001C00030E040E050E004C0220F331F441F551FB1
:1001D0006A95D2F721503040404050402E213F21B7
:1001E00040235123211531054105510521F021E01E
:1001F00030E040E050E079018A01E628F72808293C
:1002000019293CC0232BD1F1260E371E350146019A
:10021000062E04C096948794779467940A94D2F734
:1002200021E030E040E050E004C0220F331F441FC3
:10023000551F6A95D2F721503040404050402A2146
:100240003B214C215D21211531054105510521F04E
:1002500021E030E040E050E059016A01A628B728CB
:10026000C828D9280BC0821593052CF01C01AA249C
:10027000BB24650103C0EE24FF24870111969C91E5
:10028000D20111968C91981709F445C0992339F041
:10029000A80197012A193B094C095D0906C0A6016E
:1002A00095012E193F09400B510B57FD08C01182D3
:1002B0003382228224833583468357831DC081E0A5
:1002C00081833382228288279927DC01821B930B4A
:1002D000A40BB50B84839583A683B7830DC0220F2F
:1002E000331F441F551F24833583468357838281E0
:1002F000938101979383828324813581468157813D
:10030000DA01C9010197A109B1098F5F9F4FAF4F72
:10031000BF4328F30BC0918333822282EA0CFB1C7B
:100320000C1D1D1DE482F5820683178383E0808304
:10033000248135814681578157FF1AC0C901AA27F8
:1003400097FDA095BA2F81709070A070B0705695EF
:10035000479537952795822B932BA42BB52B848318
:100360009583A683B7838281938101969383828349
:10037000DF0101C0D201CD01CDB7DEB7E2E10C94BF
:100380008C10A0E2B0E0E7ECF1E00C947C10698303
:100390007A838B839C832D833E834F835887E9E048
:1003A000EE2EF12CEC0EFD1ECE010196B7010E943F
:1003B000D2048E010F5E1F4FCE010596B8010E9438
:1003C000D2048A8991E089278A8BC701B801AE01DE
:1003D000475E5F4F0E9475000E94FD03A096E6E015
:1003E0000C949810A0E2B0E0E8EFF1E00C947C10DF
:1003F00069837A838B839C832D833E834F835887C5
:10040000F9E0EF2EF12CEC0EFD1ECE010196B701A6
:100410000E94D2048E010F5E1F4FCE010596B801D7
:100420000E94D204C701B801AE01475E5F4F0E942F
:1004300075000E94FD03A096E6E00C949810A0E2DF
:10044000B0E0E5E2F2E00C94701069837A838B836C
:100450009C832D833E834F835887CE010196BE0136
:10046000675F7F4F0E94D204CE010596BE016F5E8A
:100470007F4F0E94D2049985923088F0898982301A
:10048000C8F0943019F4823051F404C0843029F457
:10049000923081F480E690E0C6C0923049F420E0CA
:1004A0009A858A89981321E02A87CE010996BBC0D4
:1004B000823049F420E09A858A89981321E02A8BBA
:1004C000CE014196B0C02D843E844F8458886D88FB
:1004D0007E888F88988CEE24FF248701AA24BB2471
:1004E000650140E050E060E070E0E0E0F0E0C10174
:1004F00081709070892BE9F0E60CF71C081D191D1E
:100500009A01AB012A0D3B1D4C1D5D1D80E090E062
:10051000A0E0B0E0E614F7040805190520F481E036
:1005200090E0A0E0B0E0BA01A901480F591F6A1F8E
:100530007B1FAA0CBB1CCC1CDD1C97FE08C081E0F5
:1005400090E0A0E0B0E0A82AB92ACA2ADB2A3196B6
:10055000E032F10549F0660C771C881C991C569412
:10056000479437942794C3CFFA85EA892B893C892D
:100570008B859C85280F391F2E5F3F4F17C0CA01FE
:1005800081709070892B61F016950795F794E79428
:1005900080E090E0A0E0B0E8E82AF92A0A2B1B2BC3
:1005A00076956795579547952F5F3F4F77FDE7CF36
:1005B0000CC0440F551F661F771F17FD4160EE0CDE
:1005C000FF1C001F111F21503040403090E05907A0
:1005D00090E0690790E4790760F32B8F3C8FDB0193
:1005E000CA018F779070A070B07080349105A1051A
:1005F000B10561F447FD0AC0E114F10401051105DC
:1006000029F0405C5F4F6F4F7F4F40781A8EFE1786
:1006100011F081E08A8F4D8F5E8F6F8F78A383E01A
:10062000898FCE0149960E94FD03A096E2E10C94C9
:100630008C10A8E1B0E0EFE1F3E00C947C1069834A
:100640007A838B839C832D833E834F83588789E0F5
:10065000E82EF12CEC0EFD1ECE010196B7010E9492
:10066000D2048E010F5E1F4FCE010596B8010E9485
:10067000D2048985823040F08989823028F0C70110
:10068000B8010E944A0501C08FEF6896E6E00C941D
:100690009810A8E1B0E0EFE4F3E00C947C106983DB
:1006A0007A838B839C832D833E834F83588789E095
:1006B000E82EF12CEC0EFD1ECE010196B7010E9432
:1006C000D2048E010F5E1F4FCE010596B8010E9425
:1006D000D2048985823040F08989823028F0C701B0
:1006E000B8010E944A0501C08FEF6896E6E00C94BD
:1006F0009810A8E1B0E0EFE7F3E00C947C10698378
:100700007A838B839C832D833E834F83588789E034
:10071000E82EF12CEC0EFD1ECE010196B7010E94D1
:10072000D2048E010F5E1F4FCE010596B8010E94C4
:10073000D2048985823040F08989823028F0C7014F
:10074000B8010E944A0501C081E06896E6E00C9479
:100750009810ACE0B0E0EFEAF3E00C94801069830D
:100760007A838B839C83CE010196BE016B5F7F4FA2
:100770000E94D2048D81823061F1823050F1843048
:1007800021F48E81882351F12EC02F81388537FDC9
:1007900020C06E812F3131051CF06623F9F023C093
:1007A0008EE190E0821B930B29853A854B855C8511
:1007B00004C056954795379527958A95D2F76623B5
:1007C000B1F050954095309521953F4F4F4F5F4F79
:1007D0000EC020E030E040E050E009C02FEF3FEFD6
:1007E0004FEF5FE704C020E030E040E050E8B9019F
:1007F000CA012C96E2E00C949C10DF92EF92FF92DB
:100800000F931F93FC01E480F58006811781D1804E
:100810008081823048F480E090E0A0E1B0E0E82AF6
:10082000F92A0A2B1B2BA5C0843009F49FC0823003
:1008300021F4EE24FF24870105C0E114F104010531
:10084000110519F4E0E0F0E096C0628173819FEF3A
:10085000623879070CF05BC022E83FEF261B370BAC
:100860002A3131052CF020E030E040E050E02AC091
:10087000B801A701022E04C0769567955795479554
:100880000A94D2F781E090E0A0E0B0E004C0880FC5
:10089000991FAA1FBB1F2A95D2F70197A109B10979
:1008A0008E219F21A023B1230097A105B10521F03E
:1008B00081E090E0A0E0B0E09A01AB01282B392B59
:1008C0004A2B5B2BDA01C9018F779070A070B07052
:1008D00080349105A105B10539F427FF09C0205CDA
:1008E0003F4F4F4F5F4F04C0215C3F4F4F4F5F4F13
:1008F000E0E0F0E02030A0E03A07A0E04A07A0E402
:100900005A0710F0E1E0F0E079018A0127C0603871
:10091000710564F5FB01E158FF4FD801C7018F77DE
:100920009070A070B07080349105A105B10539F4C4
:10093000E7FE0DC080E490E0A0E0B0E004C08FE3EB
:1009400090E0A0E0B0E0E80EF91E0A1F1B1F17FFA1
:1009500005C016950795F794E794319687E01695AC
:100960000795F794E7948A95D1F705C0EE24FF2404
:100970008701EFEFF0E06E2F679566276795902F60
:100980009F77D794DD24D7948E2F8695492F462BB9
:10099000582F5D29B701CA011F910F91FF90EF9069
:1009A000DF900895FC01DB01408151812281622F9B
:1009B0006F7770E0221F2227221F9381892F880FD3
:1009C000822B282F30E0991F9927991F11969C930D
:1009D000119721153105A9F54115510561057105DD
:1009E00011F482E037C082E89FEF13969C938E93B8
:1009F00012979A01AB0167E0220F331F441F551F66
:100A00006A95D1F783E08C930DC0220F331F441FEA
:100A1000551F12968D919C911397019713969C9355
:100A20008E931297203080E0380780E0480780E4FA
:100A3000580758F314962D933D934D935C93179755
:100A400008952F3F310579F4411551056105710570
:100A500019F484E08C93089564FF03C081E08C93C3
:100A600012C01C9210C02F57304013963C932E9307
:100A7000129783E08C9387E0440F551F661F771F02
:100A80008A95D1F7706414964D935D936D937C9322
:100A9000179708951F93DC01FB019C91923008F495
:100AA00047C08081823008F443C0943051F41196DD
:100AB0001C91843099F58181682F70E0611B710968
:100AC0003FC0843021F0923031F48230B9F181811D
:100AD000882389F12DC011961C9111978230F1F075
:100AE00081811817D9F412962D913C911397828128
:100AF00093818217930794F028173907BCF0149656
:100B00008D919D910D90BC91A02D248135814681C0
:100B10005781281739074A075B0718F4112341F05A
:100B20000AC082179307A407B50740F4112319F0F0
:100B300061E070E005C06FEF7FEF02C060E070E041
:100B4000CB011F910895DF93CF9300D0CDB7DEB7CF
:100B50009A83898320E230E0E981FA818181928160
:100B6000A381B481F9018083E1E2F0E01082A2E286
:100B7000B0E0E981FA8180818E7F8C93E6E5F0E038
:100B800084E080830F900F90CF91DF910895DF93E1
:100B9000CF93CDB7DEB7E6E5F0E084EA8083E6E503
:100BA000F0E080818823DCF7CF91DF910895DF9317
:100BB000CF93CDB7DEB7E6E5F0E084E98083CF914F
:100BC000DF910895DF93CF930F92CDB7DEB789837E
:100BD000E3E2F0E089818083E6E5F0E084E8808369
:100BE000E6E5F0E080818823DCF70F90CF91DF917C
:100BF0000895DF93CF93CDB7DEB7E6E5F0E084EC60
:100C00008083E6E5F0E080818823DCF7E3E2F0E032
:100C10008081CF91DF910895DF93CF93CDB7DEB779
:100C2000E6E5F0E084E88083E6E5F0E08081882373
:100C3000DCF7E3E2F0E08081CF91DF910895DF936C
:100C4000CF930F92CDB7DEB7E1E2F0E08081887FED
:100C5000898389810F90CF91DF910895DF93CF939E
:100C6000CDB7DEB780E067E041E00E941F0980E079
:100C700067E040E00E940A0ACF91DF910895DF9378
:100C8000CF93CDB7DEB780E067E041E00E940A0A6B
:100C9000CF91DF910895DF93CF93CDB7DEB780E09A
:100CA00067E040E00E940A0ACF91DF910895DF9348
:100CB000CF9300D000D0CDB7DEB79A8389836B8302
:100CC0000E94C7050E941F06883011F01C8228C0B0
:100CD00089819A8180709770880F892F881F990B5E
:100CE0009195806A0E94E2050E941F06883111F0EA
:100CF0001C8216C089810E94E2050E941F0688326C
:100D000011F01C820DC08B810E94E2050E941F061B
:100D1000883211F01C8204C00E94D70581E08C83C8
:100D20008C810F900F900F900F90CF91DF910895CD
:100D3000DF93CF9300D000D00F92CDB7DEB79A8368
:100D400089837C836B830E94C7050E941F068830BD
:100D500011F01D8244C089819A8180709770880F3C
:100D6000892F881F990B9195806A0E94E2050E9445
:100D70001F06883111F01D8232C089810E94E20570
:100D80000E941F06883211F01D8229C00E94C705EB
:100D90000E941F06803111F01D8221C089819A8135
:100DA00080709770880F892F881F990B9195816AA1
:100DB0000E94E2050E941F06803411F01D820FC0C0
:100DC0000E940C06EB81FC8180830E941F068835FF
:100DD00011F01D8204C00E94D70581E08D838D81B2
:100DE0000F900F900F900F900F90CF91DF9108957B
:100DF000DF93CF9300D000D0CDB7DEB79C838B8339
:100E00001A821982EBE2F0E082E08083EAE2F0E00D
:100E100088E18083E0E4F0E080E88083A0E4B0E053
:100E2000E0E4F0E08081282F2F7CEB81FC81818140
:100E3000882F90E082959295907F9827807F9827C1
:100E4000822B8C93A0E4B0E0E0E4F0E08081282FD6
:100E5000277FEB81FC818281882F90E0880F991F8A
:100E6000880F991F880F991F822B8C93A0E4B0E004
:100E7000E0E4F0E08081282F297FEB81FC818081F4
:100E8000882F90E0880F991F822B8C93EB81FC8137
:100E900083819481CC01A0E0B0E0880F991FAA1F44
:100EA000BB1F880F991FAA1FBB1F880F991FAA1F5E
:100EB000BB1F9C01AD0180E492E4AFE0B0E0BC0157
:100EC000CD010E944E10DA01C90101979A838983EE
:100ED000E0E4F0E089819A81892F99278083E9E213
:100EE000F0E0898180830F900F900F900F90CF9149
:100EF000DF910895DF93CF930F92CDB7DEB789834B
:100F0000EBE2F0E08081882F90E080729070009793
:100F1000B9F3ECE2F0E0898180830F90CF91DF910B
:100F20000895DF93CF93CDB7DEB7EBE2F0E0808199
:100F30008823DCF7ECE2F0E08081CF91DF91089527
:100F4000DF93CF9300D00F92CDB7DEB79B838A8318
:100F500019820EC08981282F30E08A819B81FC0193
:100F6000E20FF31F80810E947A0789818F5F898356
:100F70008981282F30E08A819B81FC01E20FF31FD9
:100F80008081882339F70F900F900F90CF91DF91D8
:100F900008950F931F93DF93CF9300D00F92CDB797
:100FA000DEB79B838A8319828981282F30E08A816A
:100FB0009B818C01020F131F0E949107F80180830F
:100FC0000FC089818F5F89838981282F30E08A81D2
:100FD0009B818C01020F131F0E949107F8018083EF
:100FE0008981282F30E08A819B81FC01E20FF31F69
:100FF0008081833231F78981282F30E08A819B817B
:10100000FC01E20FF31F10820F900F900F90CF9111
:10101000DF911F910F910895DF93CF930F92CDB77A
:10102000DEB78983E2E5F0E010828981843679F0C9
:10103000ECE5F0E08981882F90E0982F882724E65E
:1010400030E0B9010E943B10CB01808304C0ECE585
:10105000F0E08FEF8083A3E5B0E0E3E5F0E080818E
:101060008A668C9381E063E041E00E941F090F9043
:10107000CF91DF9108951F920F920FB60F92112416
:101080002F933F934F935F936F937F938F939F9390
:10109000AF93BF93EF93FF93DF93CF93CDB7DEB7BB
:1010A0008091780090917900009729F0E091780084
:1010B000F09179000995CF91DF91FF91EF91BF9168
:1010C000AF919F918F917F916F915F914F913F91E0
:1010D0002F910F900FBE0F901F9018951F920F9297
:1010E0000FB60F9211242F933F934F935F936F93FB
:1010F0007F938F939F93AF93BF93EF93FF93DF9370
:10110000CF93CDB7DEB780917800909179000097AA
:1011100029F0E0917800F09179000995CF91DF9165
:10112000FF91EF91BF91AF919F918F917F916F91BF
:101130005F914F913F912F910F900FBE0F901F9095
:101140001895DF93CF9300D0CDB7DEB79A8389830C
:10115000AFE4B0E0EFE4F0E08081982F9C7FE9817C
:10116000FA8185818370892B88608C93AEE4B0E02E
:10117000EEE4F0E08081982F987FE981FA81848104
:101180008770392F382BEEE4F0E08081282F277EFE
:10119000E981FA818581882F90E08C709070880FAA
:1011A000991F822B832B8C93ACE4B0E0E981FA8108
:1011B0008081918111969C938E93E981FA8185813A
:1011C000843051F4EAE4F0E0A981BA8112968D915D
:1011D0009C91139791838083A9E5B0E0E9E5F0E065
:1011E000808180618C930F900F90CF91DF91089553
:1011F000DF93CF93CDB7DEB7EFE4F0E01082EEE4FB
:10120000F0E01082ECE4F0E011821082EAE4F0E019
:1012100011821082CF91DF910895DF93CF9300D098
:10122000CDB7DEB79A83898389819A8190937900BB
:10123000809378000F900F90CF91DF910895DF9306
:10124000CF9300D000D00F92CDB7DEB789836A83E9
:101250004B838A81883008F0D5C08981843008F0BA
:10126000D1C08981282F30E03D832C838C819D81E2
:101270008130910509F443C02C813D812230310534
:101280002CF48C819D81009771F0BCC02C813D8134
:101290002230310509F45FC08C819D818330910536
:1012A00009F485C0AFC08B818130A1F4AAE3B0E01E
:1012B000EAE3F0E08081482F8A81282F30E081E046
:1012C00090E0022E02C0880F991F0A94E2F7842B47
:1012D0008C9398C0AAE3B0E0EAE3F0E08081482F65
:1012E0008A81282F30E081E090E0022E02C0880F32
:1012F000991F0A94E2F7809584238C9383C08B8195
:101300008130A1F4A7E3B0E0E7E3F0E08081482F6B
:101310008A81282F30E081E090E0022E02C0880F01
:10132000991F0A94E2F7842B8C936CC0A7E3B0E07A
:10133000E7E3F0E08081482F8A81282F30E081E0C8
:1013400090E0022E02C0880F991F0A94E2F7809560
:1013500084238C9357C08B818130A1F4A4E3B0E047
:10136000E4E3F0E08081482F8A81282F30E081E09B
:1013700090E0022E02C0880F991F0A94E2F7842B96
:101380008C9340C0A4E3B0E0E4E3F0E08081482F18
:101390008A81282F30E081E090E0022E02C0880F81
:1013A000991F0A94E2F7809584238C932BC08B813C
:1013B0008130A1F4A1E3B0E0E1E3F0E08081482FC7
:1013C0008A81282F30E081E090E0022E02C0880F51
:1013D000991F0A94E2F7842B8C9314C0A1E3B0E028
:1013E000E1E3F0E08081482F8A81282F30E081E01E
:1013F00090E0022E02C0880F991F0A94E2F78095B0
:1014000084238C930F900F900F900F900F90CF919B
:10141000DF910895DF93CF9300D000D00F92CDB726
:10142000DEB789836A834B838A81883008F0D5C010
:101430008981843008F0D1C08981282F30E03D8334
:101440002C838C819D818130910509F443C02C81CE
:101450003D81223031052CF48C819D81009771F003
:10146000BCC02C813D812230310509F45FC08C81E4
:101470009D818330910509F485C0AFC08B81813097
:10148000A1F4ABE3B0E0EBE3F0E08081482F8A8188
:10149000282F30E081E090E0022E02C0880F991FD3
:1014A0000A94E2F7842B8C9398C0ABE3B0E0EBE3B3
:1014B000F0E08081482F8A81282F30E081E090E0A1
:1014C000022E02C0880F991F0A94E2F780958423A8
:1014D0008C9383C08B818130A1F4A8E3B0E0E8E372
:1014E000F0E08081482F8A81282F30E081E090E071
:1014F000022E02C0880F991F0A94E2F7842B8C9366
:101500006CC0A8E3B0E0E8E3F0E08081482F8A8176
:10151000282F30E081E090E0022E02C0880F991F52
:101520000A94E2F7809584238C9357C08B81813095
:10153000A1F4A5E3B0E0E5E3F0E08081482F8A81E3
:10154000282F30E081E090E0022E02C0880F991F22
:101550000A94E2F7842B8C9340C0A5E3B0E0E5E366
:10156000F0E08081482F8A81282F30E081E090E0F0
:10157000022E02C0880F991F0A94E2F780958423F7
:101580008C932BC08B818130A1F4A2E3B0E0E2E325
:10159000F0E08081482F8A81282F30E081E090E0C0
:1015A000022E02C0880F991F0A94E2F7842B8C93B5
:1015B00014C0A2E3B0E0E2E3F0E08081482F8A812A
:1015C000282F30E081E090E0022E02C0880F991FA2
:1015D0000A94E2F7809584238C930F900F900F90DC
:1015E0000F900F90CF91DF910895DF93CF9300D0AC
:1015F00000D00F92CDB7DEB78A836B8319828B81BF
:10160000883008F084C08A81843008F080C08A81E4
:10161000282F30E03D832C834C815D814130510582
:1016200079F18C819D818230910534F42C813D814A
:101630002115310569F06BC04C815D814230510547
:10164000B9F18C819D818330910509F449C05FC057
:10165000E9E3F0E08081282F30E08B81882F90E053
:10166000A90102C0559547958A95E2F7CA01817094
:101670009070882319F081E0898349C0198247C09E
:10168000E6E3F0E08081282F30E08B81882F90E026
:10169000A90102C0559547958A95E2F7CA01817064
:1016A0009070882319F081E0898331C019822FC09E
:1016B000E3E3F0E08081282F30E08B81882F90E0F9
:1016C000A90102C0559547958A95E2F7CA01817034
:1016D0009070882319F081E0898319C0198217C09E
:1016E000E0E3F0E08081282F30E08B81882F90E0CC
:1016F000A90102C0559547958A95E2F7CA01817004
:101700009070882319F081E0898301C01982898152
:101710000F900F900F900F900F90CF91DF91089541
:10172000DF93CF9300D000D0CDB7DEB789836A8333
:101730008981843090F58981282F30E03C832B8388
:101740008B819C8181309105D1F02B813C812230AD
:1017500031052CF48B819C81009761F01EC02B8198
:101760003C812230310581F08B819C818330910551
:1017700081F013C0EAE3F0E08A8180830EC0E7E3E2
:10178000F0E08A81808309C0E4E3F0E08A8180830D
:1017900004C0E1E3F0E08A8180830F900F900F9006
:1017A0000F90CF91DF910895DF93CF9300D000D0B9
:1017B000CDB7DEB789836A838981843090F58981CA
:1017C000282F30E03C832B838B819C8181309105D5
:1017D000D1F02B813C81223031052CF48B819C810E
:1017E000009761F01EC02B813C812230310581F0D1
:1017F0008B819C818330910581F013C0EBE3F0E095
:101800008A8180830EC0E8E3F0E08A81808309C08A
:10181000E5E3F0E08A81808304C0E2E3F0E08A81BE
:1018200080830F900F900F900F90CF91DF910895CC
:10183000DF93CF9300D000D0CDB7DEB78A83198273
:101840008A81843090F58A81282F30E03C832B8375
:101850008B819C8181309105D1F02B813C8122309C
:1018600031052CF48B819C81009761F01EC02B8187
:101870003C812230310581F08B819C818330910540
:1018800081F013C0E9E3F0E0808189830EC0E6E3D4
:10189000F0E08081898309C0E3E3F0E080818983FF
:1018A00004C0E0E3F0E08081898389810F900F908C
:1018B0000F900F90CF91DF910895DF93CF93CDB725
:1018C000DEB781E060E041E00E941F0981E061E055
:1018D00041E00E941F0981E060E040E00E940A0AA6
:1018E00081E061E040E00E940A0ACF91DF91089513
:1018F000DF93CF9300D0CDB7DEB789836A83898128
:10190000813059F481E060E041E00E940A0A81E000
:1019100061E040E00E940A0A1BC08981823059F4CC
:1019200081E060E040E00E940A0A81E061E041E07D
:101930000E940A0A0DC08981882351F481E060E089
:1019400040E00E940A0A81E061E040E00E940A0A49
:101950008A810E940C080F900F90CF91DF9108951B
:10196000DF93CF930F92CDB7DEB782E00E947A0764
:101970000E94CB0C83E00E947A070E940D0D8983A0
:101980008981813021F482E00E947A07EECF0F90A6
:10199000CF91DF910895DF93CF9300D000D0CDB7E2
:1019A000DEB710927F0010927E0080E00E947A07DE
:1019B0001C821B8226C00E949107882F90E09A8388
:1019C000898389819A818D33910501F180917E000F
:1019D00090917F009C01220F331FC901880F991F2E
:1019E000880F991F280F391F89819A81820F931FB1
:1019F00090937F0080937E008B819C8101969C83D5
:101A00008B838B819C8185309105A8F20F900F907C
:101A10000F900F90CF91DF910895DF93CF9300D077
:101A20000F92CDB7DEB7109281001092800080E057
:101A30000E947A071A8220C00E94910789838981B7
:101A40008D33E9F080918000909181009C01220FFC
:101A5000331FC901880F991F880F991F280F391F3D
:101A60008981882F90E0820F931F9093810080934B
:101A700080008A818F5F8A838A818530E8F2209195
:101A80007E0030917F008091800090918100281726
:101A9000390721F40E94570D1B8202C081E08B831D
:101AA0008B810F900F900F90CF91DF910895DF936E
:101AB000CF93CDB7DEB72E970FB6F894DEBF0FBE2B
:101AC000CDBF87E091E09093850080938400809162
:101AD0007E0090917F00909383008093820080919C
:101AE00084009091850090938700809386009BC02E
:101AF000E0918600F09187008091820090918300B0
:101B00002AE030E0B9010E942710282FCF01622F70
:101B10000E94570680E090E0A0E2B1E48B879C87AA
:101B2000AD87BE876B857C858D859E8520E030E006
:101B30004AE753E40E941F02DC01CB018F839887A0
:101B4000A987BA876F81788589859A8520E030E0FA
:101B500040E85FE30E94790388232CF481E090E061
:101B60009E838D833FC06F81788589859A8520E02B
:101B70003FEF4FE757E40E94190318164CF56B85A9
:101B80007C858D859E8520E030E040E251E40E9416
:101B90001F02DC01CB01BC01CD010E944900DC0128
:101BA000CB019E838D830FC089E190E09C838B8362
:101BB0008B819C810197F1F79C838B838D819E8122
:101BC00001979E838D838D819E81009769F714C054
:101BD0006F81788589859A850E944900DC01CB0157
:101BE0009E838D838D819E819A83898389819A8149
:101BF0000197F1F79A8389838091860090918700FD
:101C00000196909387008093860080918200909146
:101C100083002AE030E0B9010E942710CB019093A5
:101C200083008093820080918200909183000097CE
:101C300009F05ECF80918600909187000197909384
:101C40008700809386002E960FB6F894DEBF0FBEF5
:101C5000CDBFCF91DF910895DF93CF93CDB7DEB79E
:101C600080E00E947A070E949107882F90E090936D
:101C700089008093880080918800909189008B3240
:101C8000910539F080918800909189008D329105FD
:101C900051F78091880090918900CF91DF9108954C
:101CA000DF93CF93CDB7DEB780918C0090918D00FC
:101CB000019690938D0080938C00CF91DF910895D1
:101CC000DF93CF93CDB7DEB781E064E60E94780C56
:101CD00080E59EE00E940D0988E690E00E94A10840
:101CE00080918C0090918D008F309105C8F30E94F7
:101CF000F80810928D0010928C0080E060E00E9445
:101D0000780C80E59EE00E940D0988E690E00E9434
:101D1000A10880918C0090918D0083309105C8F3CB
:101D20000E94F80810928D0010928C00CF91DF91E4
:101D30000895DF93CF93CDB7DEB782E064E60E94CB
:101D4000780C80E59EE00E940D0988E690E00E94F4
:101D5000A10880918C0090918D008F309105C8F37F
:101D60000E94F80810928D0010928C0080E060E0D4
:101D70000E94780CCF91DF910895DF93CF93CDB778
:101D8000DEB782E00E947A070E94DE0E0E94140FE6
:101D9000882389F410928B0010928A0084E00E94BC
:101DA0007A070E94600E85E00E947A070E94990ED1
:101DB000CF91DF9108950E946A0FE3CFDF93CF9315
:101DC00000D0CDB7DEB710927B0010927A0080E091
:101DD0000E947A071A8220C00E9491078983898114
:101DE0008D33E9F080917A0090917B009C01220F65
:101DF000331FC901880F991F880F991F280F391F9A
:101E00008981882F90E0820F931F90937B008093AD
:101E10007A008A818F5F8A838A818530E8F20F9009
:101E20000F90CF91DF910895DF93CF9300D000D032
:101E3000CDB7DEB710927D0010927C001B8280919E
:101E40008600909187009A83898324C089819A8132
:101E50009E012D5F3F4FB9010E94980680917C0042
:101E600090917D009C01220F331FC901880F991F9B
:101E7000880F991F280F391F8B81882F90E0820FC0
:101E8000931F90937D0080937C0089819A810197B4
:101E90009A838983209184003091850089819A8179
:101EA0008217930798F620917A0030917B008091F9
:101EB0007C0090917D002817390711F41C8202C024
:101EC00081E08C838C810F900F900F900F90CF91B9
:101ED000DF910895DF93CF93CDB7DEB780918A006D
:101EE00090918B00019690938B0080938A00809153
:101EF0008A0090918B008330910501F510928B0040
:101F000010928A0086E00E947A070E943F0680E5D0
:101F10009EE00E940D0988E690E00E94A108809151
:101F20008C0090918D008C339105C8F30E94F808C5
:101F300010928D0010928C000E944B06CF91DF9181
:101F40000895DF93CF93CDB7DEB782E00E947A0782
:101F50000E94DE0E0E94140F8823B9F710928B00A6
:101F600010928A000E94B00CCF91DF910895DF9308
:101F7000CF93CDB7DEB764970FB6F894DEBF0FBE30
:101F8000CDBF0E942E060E945D0CAFE5B0E0EFE5EC
:101F9000F0E0808180688C93CE0101969C878B87CE
:101FA000E3E7F0E0FE87ED87F5E0FF87ED85FE854E
:101FB00000808D859E8501969E878D87EB85FC85AB
:101FC00000828B859C8501969C878B879F8591508D
:101FD0009F87EF85EE2351F7CE0101960E94F80608
:101FE000CE010696998B888BEEE6F0E0FB8BEA8BB0
:101FF000F5E0FC8BEA89FB8900808A899B89019640
:102000009B8B8A8BE889F989008288899989019656
:10201000998B888B9C8991509C8BEC89EE2351F78E
:10202000CE0106960E94A3050E9491078823E1F73E
:102030000E94B00C87E00E947A070E942C0E8B321F
:1020400019F40E94BD0EF6CF0E94A10FF3CFAA1B78
:10205000BB1B51E107C0AA1FBB1FA617B70710F093
:10206000A61BB70B881F991F5A95A9F780959095C5
:10207000BC01CD01089597FB092E07260AD077FDF4
:1020800004D0E5DF06D000201AF4709561957F4FEB
:102090000895F6F7909581959F4F0895A1E21A2E25
:1020A000AA1BBB1BFD010DC0AA1FBB1FEE1FFF1FFC
:1020B000A217B307E407F50720F0A21BB30BE40B4C
:1020C000F50B661F771F881F991F1A9469F7609593
:1020D0007095809590959B01AC01BD01CF0108954D
:1020E0002F923F924F925F926F927F928F929F9228
:1020F000AF92BF92CF92DF92EF92FF920F931F9316
:10210000CF93DF93CDB7DEB7CA1BDB0B0FB6F894C6
:10211000DEBF0FBECDBF09942A88398848885F8406
:102120006E847D848C849B84AA84B984C884DF8077
:10213000EE80FD800C811B81AA81B981CE0FD11D5B
:102140000FB6F894DEBF0FBECDBFED010895F89431
:02215000FFCFBF
:1021520000000000000000000000800C05040102E5
:082162000000000300008025CD
:00000001FF
