:100000000C942A000C941C020C944F020C94820253
:100010000C943C000C943C000C943C000C943C0070
:100020000C943C000C943C000C943C000C943C0060
:100030000C943C000C943C000C943C000C943C0050
:100040000C943C000C943C000C943C000C943C0040
:100050000C943C0011241FBECFE5D8E0DEBFCDBF1D
:1000600010E0A0E6B0E001C01D92A836B107E1F7AC
:100070000E9465060C9407070C940000DF93CF9351
:10008000CDB7DEB7AFE5B0E0EFE5F0E080818068A6
:100090008C93CF91DF910895DF93CF93CDB7DEB7E7
:1000A000AFE5B0E0EFE5F0E080818F778C93CF9102
:1000B000DF910895DF93CF93CDB7DEB780E063E0A3
:1000C0000E94DB0081E063E00E94DB0082E063E0ED
:1000D0000E94DB00CF91DF910895DF93CF9300D092
:1000E0000F92CDB7DEB789838981282F30E03B831B
:1000F0002A838A819B818130910589F02A813B8105
:1001000022303105A1F08A819B810097B9F4ABE5DB
:10011000B0E0EBE5F0E0808180648C930FC0ABE54C
:10012000B0E0EBE5F0E0808180688C9307C0ABE540
:10013000B0E0EBE5F0E0808180628C930F900F904F
:100140000F90CF91DF910895DF93CF9300D00F925E
:10015000CDB7DEB789838981282F30E03B832A839E
:100160008A819B818130910589F02A813B812230EF
:100170003105A1F08A819B810097B9F4ABE5B0E02D
:10018000EBE5F0E080818F7B8C930FC0ABE5B0E0B6
:10019000EBE5F0E080818F778C9307C0ABE5B0E0B2
:1001A000EBE5F0E080818F7D8C930F900F900F90A6
:1001B000CF91DF910895DF93CF93CDB7DEB72A9724
:1001C0000FB6F894DEBF0FBECDBF89836A838981E5
:1001D000282F30E03A87298789859A8581309105D3
:1001E00009F466C029853A852230310509F4BBC07F
:1001F00089859A85009709F0DDC08A81282F30E033
:1002000038872F838F8198858130910521F12F8147
:100210003885223031052CF48F819885009761F064
:10022000C9C02F8138852230310521F18F81988511
:100230008330910571F1BEC0A5E5B0E0E5E5F0E0E1
:1002400080818E7F8C93A5E5B0E0E5E5F0E08081CC
:100250008D7F8C93AFC0A5E5B0E0E5E5F0E080814F
:100260008D7F8C93A5E5B0E0E5E5F0E080818160CD
:100270008C93A0C0A5E5B0E0E5E5F0E080818E7F3D
:100280008C93A5E5B0E0E5E5F0E0808182608C9399
:1002900091C0A5E5B0E0E5E5F0E0808181608C9358
:1002A000A5E5B0E0E5E5F0E0808182608C9382C056
:1002B0008A81282F30E03E832D838D819E8181307D
:1002C000910521F12D813E81223031052CF48D8163
:1002D0009E81009761F06EC02D813E8122303105F4
:1002E00021F18D819E818330910571F163C0A5E577
:1002F000B0E0E5E5F0E080818B7F8C93A5E5B0E090
:10030000E5E5F0E08081877F8C9354C0A5E5B0E0FF
:10031000E5E5F0E08081877F8C93A5E5B0E0E5E539
:10032000F0E0808184608C9345C0A5E5B0E0E5E510
:10033000F0E080818B7F8C93A5E5B0E0E5E5F0E00F
:10034000808188608C9336C0A5E5B0E0E5E5F0E0FB
:10035000808184608C93A5E5B0E0E5E5F0E08081E4
:1003600088608C9327C08A81282F30E03C832B83C0
:100370008B819C818230910531F02B813C8123302F
:10038000310549F010C0A4E5B0E0E4E5F0E080817B
:100390008F7B8C930FC0A4E5B0E0E4E5F0E08081B2
:1003A00080648C9307C0A4E5B0E0E4E5F0E08081D0
:1003B0008F7B8C932A960FB6F894DEBF0FBECDBF0D
:1003C000CF91DF910895DF93CF9300D000D00F92AB
:1003D000CDB7DEB789837B836A838981282F30E09C
:1003E0003D832C838C819D818130910581F02C810E
:1003F0003D812230310591F08C819D810097A1F4DF
:100400008A819B8190936100809360000DC08A81F6
:100410009B81909363008093620006C08A819B81D8
:1004200090936500809364000F900F900F900F9051
:100430000F90CF91DF9108951F920F920FB60F92F8
:1004400011242F933F934F935F936F937F938F93D9
:100450009F93AF93BF93EF93FF93DF93CF93CDB76A
:10046000DEB78091600090916100009729F0E091E3
:100470006000F09161000995CF91DF91FF91EF91BC
:10048000BF91AF919F918F917F916F915F914F91AC
:100490003F912F910F900FBE0F901F9018951F92B4
:1004A0000F920FB60F9211242F933F934F935F93A8
:1004B0006F937F938F939F93AF93BF93EF93FF932C
:1004C000DF93CF93CDB7DEB7809162009091630048
:1004D000009729F0E0916200F09163000995CF91B7
:1004E000DF91FF91EF91BF91AF919F918F917F919C
:1004F0006F915F914F913F912F910F900FBE0F9091
:100500001F9018951F920F920FB60F9211242F93E0
:100510003F934F935F936F937F938F939F93AF938B
:10052000BF93EF93FF93DF93CF93CDB7DEB7809167
:10053000640090916500009729F0E0916400F091CB
:1005400065000995CF91DF91FF91EF91BF91AF9138
:100550009F918F917F916F915F914F913F912F91DB
:100560000F900FBE0F901F901895DF93CF9300D080
:1005700000D00F92CDB7DEB789836A834B838A811F
:10058000883008F0D5C08981843008F0D1C08981D5
:10059000282F30E03D832C838C819D818130910513
:1005A00009F443C02C813D81223031052CF48C812B
:1005B0009D81009771F0BCC02C813D8122303105B6
:1005C00009F45FC08C819D818330910509F485C059
:1005D000AFC08B818130A1F4AAE3B0E0EAE3F0E0A0
:1005E0008081482F8A81282F30E081E090E0022E20
:1005F00002C0880F991F0A94E2F7842B8C9398C04D
:10060000AAE3B0E0EAE3F0E08081482F8A81282F56
:1006100030E081E090E0022E02C0880F991F0A941A
:10062000E2F7809584238C9383C08B818130A1F481
:10063000A7E3B0E0E7E3F0E08081482F8A81282F2C
:1006400030E081E090E0022E02C0880F991F0A94EA
:10065000E2F7842B8C936CC0A7E3B0E0E7E3F0E013
:100660008081482F8A81282F30E081E090E0022E9F
:1006700002C0880F991F0A94E2F7809584238C9317
:1006800057C08B818130A1F4A4E3B0E0E4E3F0E053
:100690008081482F8A81282F30E081E090E0022E6F
:1006A00002C0880F991F0A94E2F7842B8C9340C0F4
:1006B000A4E3B0E0E4E3F0E08081482F8A81282FB2
:1006C00030E081E090E0022E02C0880F991F0A946A
:1006D000E2F7809584238C932BC08B818130A1F429
:1006E000A1E3B0E0E1E3F0E08081482F8A81282F88
:1006F00030E081E090E0022E02C0880F991F0A943A
:10070000E2F7842B8C9314C0A1E3B0E0E1E3F0E0C6
:100710008081482F8A81282F30E081E090E0022EEE
:1007200002C0880F991F0A94E2F7809584238C9366
:100730000F900F900F900F900F90CF91DF91089531
:10074000DF93CF9300D000D00F92CDB7DEB789836F
:100750006A834B838A81883008F0D5C089818430D0
:1007600008F0D1C08981282F30E03D832C838C8113
:100770009D818130910509F443C02C813D81223057
:1007800031052CF48C819D81009771F0BCC02C81C7
:100790003D812230310509F45FC08C819D81833019
:1007A000910509F485C0AFC08B818130A1F4ABE322
:1007B000B0E0EBE3F0E08081482F8A81282F30E021
:1007C00081E090E0022E02C0880F991F0A94E2F7A0
:1007D000842B8C9398C0ABE3B0E0EBE3F0E0808136
:1007E000482F8A81282F30E081E090E0022E02C05D
:1007F000880F991F0A94E2F7809584238C9383C015
:100800008B818130A1F4A8E3B0E0E8E3F0E08081DF
:10081000482F8A81282F30E081E090E0022E02C02C
:10082000880F991F0A94E2F7842B8C936CC0A8E37D
:10083000B0E0E8E3F0E08081482F8A81282F30E0A3
:1008400081E090E0022E02C0880F991F0A94E2F71F
:10085000809584238C9357C08B818130A1F4A5E3CC
:10086000B0E0E5E3F0E08081482F8A81282F30E076
:1008700081E090E0022E02C0880F991F0A94E2F7EF
:10088000842B8C9340C0A5E3B0E0E5E3F0E08081E9
:10089000482F8A81282F30E081E090E0022E02C0AC
:1008A000880F991F0A94E2F7809584238C932BC0BC
:1008B0008B818130A1F4A2E3B0E0E2E3F0E080813B
:1008C000482F8A81282F30E081E090E0022E02C07C
:1008D000880F991F0A94E2F7842B8C9314C0A2E32B
:1008E000B0E0E2E3F0E08081482F8A81282F30E0F9
:1008F00081E090E0022E02C0880F991F0A94E2F76F
:10090000809584238C930F900F900F900F900F90F1
:10091000CF91DF910895DF93CF9300D000D00F9255
:10092000CDB7DEB78A836B8319828B81883008F05C
:1009300084C08A81843008F080C08A81282F30E00A
:100940003D832C834C815D814130510579F18C814F
:100950009D818230910534F42C813D812115310532
:1009600069F06BC04C815D8142305105B9F18C81D9
:100970009D818330910509F449C05FC0E9E3F0E04F
:100980008081282F30E08B81882F90E0A90102C060
:10099000559547958A95E2F7CA0181709070882332
:1009A00019F081E0898349C0198247C0E6E3F0E08D
:1009B0008081282F30E08B81882F90E0A90102C030
:1009C000559547958A95E2F7CA0181709070882302
:1009D00019F081E0898331C019822FC0E3E3F0E090
:1009E0008081282F30E08B81882F90E0A90102C000
:1009F000559547958A95E2F7CA01817090708823D2
:100A000019F081E0898319C0198217C0E0E3F0E092
:100A10008081282F30E08B81882F90E0A90102C0CF
:100A2000559547958A95E2F7CA01817090708823A1
:100A300019F081E0898301C0198289810F900F909C
:100A40000F900F900F90CF91DF910895DF93CF9388
:100A500000D000D0CDB7DEB789836A838981843026
:100A600090F58981282F30E03C832B838B819C81FA
:100A700081309105D1F02B813C81223031052CF45D
:100A80008B819C81009761F01EC02B813C812230BC
:100A9000310581F08B819C818330910581F013C0F9
:100AA000EAE3F0E08A8180830EC0E7E3F0E08A8128
:100AB000808309C0E4E3F0E08A81808304C0E1E33D
:100AC000F0E08A8180830F900F900F900F90CF916C
:100AD000DF910895DF93CF9300D000D0CDB7DEB77C
:100AE00089836A838981843090F58981282F30E059
:100AF0003C832B838B819C8181309105D1F02B81AC
:100B00003C81223031052CF48B819C81009761F06F
:100B10001EC02B813C812230310581F08B819C816C
:100B20008330910581F013C0EBE3F0E08A8180838C
:100B30000EC0E8E3F0E08A81808309C0E5E3F0E0DD
:100B40008A81808304C0E2E3F0E08A8180830F9091
:100B50000F900F900F90CF91DF910895DF93CF9377
:100B600000D000D00F92CDB7DEB78A836B83198295
:100B70008A81843090F58A81282F30E03D832C8350
:100B80008C819D8181309105D1F02C813D81223075
:100B900031052CF48C819D81009761F01EC02C8161
:100BA0003D812230310581F08C819D81833091051A
:100BB00081F013C0E9E3F0E0808189830EC0E6E3B1
:100BC000F0E08081898309C0E3E3F0E080818983DC
:100BD00004C0E0E3F0E08081898389810F900F9069
:100BE0000F900F900F90CF91DF910895DF93CF93E7
:100BF000CDB7DEB781E060E041E00E94B50281E060
:100C000061E041E00E94B50281E060E040E00E94C6
:100C1000A00381E061E040E00E94A003CF91DF915A
:100C20000895DF93CF930F92CDB7DEB78983898183
:100C3000813059F481E060E041E00E94A00381E04E
:100C400061E040E00E94A0031BC08981823059F41A
:100C500081E060E040E00E94A00381E061E041E0CB
:100C60000E94A0030DC08981882351F481E060E0D7
:100C700040E00E94A00381E061E040E00E94A00308
:100C80000F90CF91DF910895DF93CF93CDB7DEB76B
:100C9000809167008F5F8093670080916700882F45
:100CA00090E081709070882339F081E00E941106F5
:100CB00081E08093660006C082E00E94110682E017
:100CC00080936600CF91DF910895DF93CF9300D09A
:100CD000CDB7DEB781E060E041E00E94B50281E07F
:100CE00061E041E00E94B50282E060E041E00E94E4
:100CF000B50282E061E041E00E94B50282E062E07C
:100D000041E00E94B50280E063E00E94DB0080E0E9
:100D10000E946D000E943E0024E436E080E0B901AC
:100D20000E94E30180916600282F30E03A832983F6
:100D300089819A818130910551F129813A8122304E
:100D4000310509F444C089819A81009759F781E0FF
:100D500060E040E00E94A00381E061E040E00E948A
:100D6000A003A5E3B0E0E5E3F0E080818E7F8C9303
:100D7000A5E3B0E0E5E3F0E080818D7F8C93A5E30F
:100D8000B0E0E5E3F0E0808184608C93CBCF81E03C
:100D900060E041E00E94A00381E061E040E00E9449
:100DA000A003A5E3B0E0E5E3F0E080818E7F8C93C3
:100DB000A5E3B0E0E5E3F0E080818B7F8C93A5E3D1
:100DC000B0E0E5E3F0E0808182608C93ABCF81E01E
:100DD00060E040E00E94A00381E061E041E00E9409
:100DE000A003A5E3B0E0E5E3F0E080818D7F8C9384
:100DF000A5E3B0E0E5E3F0E080818B7F8C93A5E391
:100E0000B0E0E5E3F0E0808181608C938BCFF894D3
:020E1000FFCF12
:00000001FF
